:10000000D2C00000FEC00000FCC00000FAC000002A
:10001000F8C00000F6C00000F4C00000F2C000000C
:10002000F0C00000EEC00000ECC00000EAC000001C
:10003000E8C00000E6C00000E4C00000E2C000002C
:10004000E0C00000DEC00000DCC00000DAC000003C
:10005000D8C00000D6C00000D4C0000037C40000E3
:10006000D0C00000B9C10000EDC10000CAC000004E
:10007000C8C00000C6C00000C4C00000C2C000006C
:10008000C0C00000BEC00000BCC00000BAC000007C
:10009000B8C00000B6C00000B4C00000B2C000008C
:1000A000B0C00000AEC00000ACC00000AAC000009C
:1000B000A8C00000A6C00000A4C00000A2C00000AC
:1000C000A0C000009EC000009CC000009AC00000BC
:1000D00098C0000096C0000094C0000092C00000CC
:1000E00090C00000010210202008081020401020BD
:1000F00040800201020108040201010204081020EC
:1001000040808040201008040201800402018040E9
:100110002010080402010804020101020408102052
:1001200040800102040810204080050505050705F0
:1001300008080808020202020A0A08080404040463
:10014000010101010101010103030303030303038F
:10015000040707070C0C0C0C0C0C0C0C020202021E
:1001600006060606060606060B0B0B0B0B0B0B0B07
:1001700000002200250028002B002E003100340052
:1001800002010000050108010B010000210024000C
:1001900027002A002D003000330001010000040177
:1001A00007010A01540211241FBECFEFD1E2DEBFC6
:1001B000CDBF00E00CBF12E0A0E0B2E0E0EDF0E166
:1001C00000E00BBF02C007900D92AA34B107D9F727
:1001D00022E0AAE4B2E001C01D92A03FB207E1F71D
:1001E00011E0C6EAD1E000E005C022970109FE0156
:1001F0000BBF68D7C43AD10780E00807B1F75CD3DA
:1002000065C7FECE60E087E3AED060E088E3ABD0A8
:1002100060E089E3A8D060E08AE3A5D060E08BE3EA
:10022000A2C0AF92BF92CF92DF92EF92FF920F9354
:100230001F93CF93DF9387E371D05C0188E36ED087
:100240006C0189E36BD07C018AE368D08C018BE37D
:1002500065D0EC0161E072E08AE492E0A6D1B501DC
:10026000882777FD8095982FF0D5AB01BC0122E05F
:1002700030E08AE492E00FD369E072E08AE492E031
:1002800094D1B601882777FD8095982FDED5AB01F4
:10029000BC0122E030E08AE492E0FDD261E172E04C
:1002A0008AE492E082D1B701882777FD8095982F64
:1002B000CCD5AB01BC0122E030E08AE492E0EBD285
:1002C00069E172E08AE492E070D1B801882777FD95
:1002D0008095982FBAD5AB01BC0122E030E08AE4CA
:1002E00092E0D9D261E272E08AE492E05ED1BE018E
:1002F000882777FD8095982FA8D5AB01BC0122E017
:1003000030E08AE492E0DF91CF911F910F91FF904E
:10031000EF90DF90CF90BF90AF90BDC2863308F0D2
:10032000865320917B00982F9870277F922B909373
:100330007B0087702091000290E4299F9001112496
:10034000822B80937C0080917A00806480937A0075
:1003500080917A0086FDFCCF809178002091790011
:1003600090E0922B0895CF93DF9390E0FC01EC5145
:10037000FF4F2491FC01E65DFE4F8491882349F1F3
:1003800090E0880F991FFC01E657FE4FA591B491AC
:1003900080599E4FFC01C591D4919FB7611108C04F
:1003A000F8948C91209582238C93888182230AC0B3
:1003B000623051F4F8948C91322F309583238C93D2
:1003C0008881822B888304C0F8948C91822B8C9333
:1003D0009FBFDF91CF9108951F920F920FB60F929A
:1003E00011240BB60F922F938F939F93EF93FF934C
:1003F000E0915A02F0915B028081E0916002F091FD
:10040000610282FD12C09081809163028F5F8F73C1
:1004100020916402821751F0E0916302F0E0E65B04
:10042000FD4F958F8093630201C08081FF91EF9112
:100430009F918F912F910F900BBE0F900FBE0F9039
:100440001F9018951F920F920FB60F9211240BB6A2
:100450000F922F933F934F935F936F937F938F935D
:100460009F93AF93BF93EF93FF938AE492E043D3BC
:10047000FF91EF91BF91AF919F918F917F916F917C
:100480005F914F913F912F910F900BBE0F900FBE38
:100490000F901F9018958AE492E0C4D221E0892B36
:1004A00009F420E0822F089510924D0210924C0220
:1004B00088EE93E0A0E0B0E080934E0290934F026C
:1004C000A0935002B09351028EE392E090934B02BE
:1004D00080934A0285EC90E09093570280935602F5
:1004E00084EC90E0909359028093580280EC90E065
:1004F00090935B0280935A0281EC90E090935D02AE
:1005000080935C0282EC90E090935F0280935E02A5
:1005100086EC90E0909361028093600210926302F7
:100520001092640210926502109266020895CF92B2
:10053000DF92EF92FF920F931F93CF93DF937C0193
:100540006A01EB0100E010E00C151D0571F06991E6
:10055000D701ED91FC910190F081E02DC701199533
:10056000892B19F00F5F1F4FEFCFC801DF91CF919B
:100570001F910F91FF90EF90DF90CF90089561153C
:10058000710581F0DB010D900020E9F7AD014150CC
:100590005109461B570BDC01ED91FC910280F38160
:1005A000E02D199480E090E00895E9CFDC01ED9111
:1005B000FC910190F081E02D199469E272E0DFCFA7
:1005C0008F929F92AF92BF92DF92EF92FF920F9322
:1005D0001F93CF93DF93CDB7DEB7A1970FB6F894F3
:1005E000DEBF0FBECDBF7C01F42FD52ECB0119A2EB
:1005F000223008F42AE08E010F5D1F4F822E912CCD
:10060000A12CB12C6F2F7D2DA501940139D5F22F8E
:10061000D32ECA01015011096A3014F4E0E301C07D
:10062000E7E3E60FD801EC93232B242B252B51F77E
:10063000B801C701A4DFA1960FB6F894DEBF0FBEC4
:10064000CDBFDF91CF911F910F91FF90EF90DF9081
:10065000BF90AF909F908F900895CF92DF92EF92CE
:10066000FF920F931F93CF93DF93EC016A017B01FD
:100670002115310579F4E881F9810190F081E02DAF
:10068000642FDF91CF911F910F91FF90EF90DF903A
:10069000CF9019942A303105D9F477FF18C06DE254
:1006A00085DF8C0144275527BA014C195D096E0975
:1006B0007F092AE0CE0184DF800F911FDF91CF9167
:1006C0001F910F91FF90EF90DF90CF9008952AE057
:1006D000B701A601CE01DF91CF911F910F91FF903D
:1006E000EF90DF90CF906CCF4F925F926F927F929E
:1006F0008F929F92AF92BF92CF92DF92EF92FF9232
:100700000F931F93CF93DF93EC016A017B01B22E0D
:100710009A01AB01C701B601AFD4882319F06CE28E
:1007200072E024C026013701E89477F82FEF3FEFFD
:100730004FE75FE7C301B2019FD481110CC02FEFD7
:100740003FEF4FE75FE7C301B201E0D218161CF498
:1007500060E372E00BC02FEF3FEF4FE75FE4C701AC
:10076000B60123D41816A4F464E372E0CE01DF913D
:10077000CF911F910F91FF90EF90DF90CF90BF909E
:10078000AF909F908F907F906F905F904F90F7CE3B
:100790002FEF3FEF4FE75FECC701B601B7D287FD00
:1007A000E3CF20E030E0A901C701B601AFD287FF57
:1007B00009C06DE2CE01FADE8C01F7FAF094F7F889
:1007C000F09402C000E010E0A12C60E070E080E056
:1007D0009FE3AB1439F020E030E040E251E49AD2DC
:1007E000A394F7CF9B01AC01C701B6012BD26B01DB
:1007F0007C01FDD22B013C0126D39B01AC01C7013A
:10080000B6011FD26B017C012AE0B301A201CE0127
:10081000D7DE080F191FBB2031F068E372E0CE016C
:10082000AEDE080F191F7B2C772019F120E030E095
:1008300040E251E4C701B601BCD36B017C01D2D2C6
:100840004B01AA2497FCA094BA2C2AE030E0B50111
:10085000A401CE0102DF080F191FC501B401F5D2B2
:100860009B01AC01C701B601ECD16B017C017A940C
:10087000DBCFC801DF91CF911F910F91FF90EF90D7
:10088000DF90CF90BF90AF909F908F907F906F90B0
:100890005F904F9008950F931F93CF93DF93EC01D8
:1008A00023DF8C01CE0189DE800F911FDF91CF9174
:1008B0001F910F910895089553D0FDDFA3DCCFE37E
:1008C000D5E0AFDC2097E9F3DAD0FBCF1F920F928F
:1008D0000FB60F9211242F933F938F939F93AF9353
:1008E000BF938091E8029091E902A091EA02B09151
:1008F000EB023091E70223E0230F2D3720F401961D
:10090000A11DB11D05C026E8230F0296A11DB11D32
:100910002093E7028093E8029093E902A093EA0211
:10092000B093EB028091EC029091ED02A091EE0267
:10093000B091EF020196A11DB11D8093EC0290933E
:10094000ED02A093EE02B093EF02BF91AF919F91A1
:100950008F913F912F910F900FBE0F901F90189580
:10096000789484B5826084BD84B5816084BD85B58A
:10097000826085BD85B5816085BDEEE6F0E0808151
:1009800081608083E1E8F0E0108280818260808372
:10099000808181608083E0E8F0E0808181608083F5
:1009A000E1EBF0E0808184608083E0EBF0E0808127
:1009B00081608083E1E9F0E08081826080838081D2
:1009C00081608083E0E9F0E0808181608083E1EAFA
:1009D000F0E0808182608083808181608083E0EAB2
:1009E000F0E0808181608083E1E2F1E080818260DB
:1009F0008083808181608083E0E2F1E0808181609A
:100A00008083EAE7F0E08081846080838081826077
:100A10008083808181608083808180688083109260
:100A2000C1000895FC01818D228D90E0805C9F4F74
:100A3000821B91098F7399270895FC01918D828DF6
:100A4000981731F0828DE80FF11D858D90E00895A3
:100A50008FEF9FEF0895FC01918D828D981761F0C3
:100A6000828DDF01A80FB11D5D968C91928D9F5FE5
:100A70009F73928F90E008958FEF9FEF08958BE41E
:100A800092E0892B39F080E090E0892B19F003DDAA
:100A9000811125C080E090E0892B41F080E090E05A
:100AA000892B21F00E94000081111CC080E090E0A1
:100AB000892B41F080E090E0892B21F00E9400001A
:100AC000811113C080E090E0892BA1F080E090E0DC
:100AD000892B81F00E94000081110AC008950E94B4
:100AE0000000D8CF0E940000E1CF0E940000EACFB2
:100AF0000C9400000895FC01848DDF01A80FB11D46
:100B0000A35ABF4F2C91848D90E001968F73992743
:100B1000848FA689B7892C93A089B1898C91806430
:100B20008C93938D848D981306C00288F389E02DF1
:100B300080818F7D80830895CF93DF93EC01888D32
:100B40008823C1F0EA89FB89808185FD05C0A889D9
:100B5000B9898C9186FD0EC00FB607FCF5CF808158
:100B600085FFF2CFA889B9898C9185FFEDCFCE01A1
:100B7000C2DFE8CFDF91CF910895CF92DF92FF924D
:100B80000F931F93CF93DF931F92CDB7DEB76C0106
:100B900081E0D60158968C9358975B969C915B9711
:100BA0005C968C915C97981307C05096ED91FC91E0
:100BB0005197808185FD2DC0F601038D10E00F5FF8
:100BC0001F4F0F731127F02EF601848DF81210C0FD
:100BD0000FB607FCF9CFD6015096ED91FC915197D5
:100BE000808185FFF1CFC601698385DF6981ECCF04
:100BF000838DE80FF11DE35AFF4F6083D6015B96AA
:100C00000C935B975296ED91FC9153978081806293
:100C10000CC0D6015696ED91FC9157976083509683
:100C2000ED91FC91519780818064808381E090E018
:100C30000F90DF91CF911F910F91FF90DF90CF9098
:100C400008955058BB27AA270ED075C166D130F041
:100C50006BD120F031F49F3F11F41EF45BC10EF410
:100C6000E095E7FB51C1E92F77D180F3BA1762070E
:100C700073078407950718F071F49EF58FC10EF481
:100C8000E0950B2EBA2FA02D0B01B90190010C019C
:100C9000CA01A0011124FF27591B99F0593F50F4B4
:100CA000503E68F11A16F040A22F232F342F44270C
:100CB000585FF3CF469537952795A795F040539504
:100CC000C9F77EF41F16BA0B620B730B840BBAF0D4
:100CD0009150A1F0FF0FBB1F661F771F881FC2F73F
:100CE0000EC0BA0F621F731F841F48F48795779553
:100CF0006795B795F7959E3F08F0B3CF9395880F0A
:100D000008F09927EE0F979587950895D9D008F4A4
:100D100081E008950CD00FC107D140F0FED030F033
:100D200021F45F3F19F0F0C0511139C1F3C014D163
:100D300098F39923C9F35523B1F3951B550BBB27A2
:100D4000AA2762177307840738F09F5F5F4F220F4F
:100D5000331F441FAA1FA9F333D00E2E3AF0E0E848
:100D600030D091505040E695001CCAF729D0FE2F94
:100D700027D0660F771F881FBB1F26173707480726
:100D8000AB07B0E809F0BB0B802DBF01FF279358DC
:100D90005F4F2AF09E3F510568F0B6C000C15F3F2B
:100DA000ECF3983EDCF3869577956795B795F795C4
:100DB0009F5FC9F7880F911D9695879597F90895BC
:100DC000E1E0660F771F881FBB1F62177307840758
:100DD000BA0720F0621B730B840BBA0BEE1F88F767
:100DE000E095089504D06894B111D9C00895BCD09D
:100DF00088F09F5790F0B92F9927B751A0F0D1F004
:100E0000660F771F881F991F1AF0BA95C9F712C08D
:100E1000B13081F0C3D0B1E00895C0C0672F782F02
:100E20008827B85F39F0B93FCCF3869577956795F9
:100E3000B395D9F73EF490958095709561957F4F65
:100E40008F4F9F4F0895E89409C097FB3EF490950B
:100E50008095709561957F4F8F4F9F4F9923A9F093
:100E6000F92F96E9BB279395F69587957795679522
:100E7000B795F111F8CFFAF4BB0F11F460FF1BC066
:100E80006F5F7F4F8F4F9F4F16C0882311F096E9F9
:100E900011C0772321F09EE8872F762F05C06623A7
:100EA00071F096E8862F70E060E02AF09A95660F60
:100EB000771F881FDAF7880F9695879597F9089519
:100EC000990F0008550FAA0BE0E8FEEF161617065B
:100ED000E807F907C0F012161306E407F50798F0C3
:100EE000621B730B840B950B39F40A2661F0232BDC
:100EF000242B252B21F408950A2609F4A140A69558
:100F00008FEF811D811D089597F99F6780E870E03C
:100F100060E008959FEF80EC089500240A9416166F
:100F2000170618060906089500240A9412161306D7
:100F3000140605060895092E0394000C11F4882365
:100F400052F0BB0F40F4BF2B11F460FF04C06F5F81
:100F50007F4F8F4F9F4F089557FD9058440F551F57
:100F600059F05F3F71F04795880F97FB991F61F02B
:100F70009F3F79F087950895121613061406551FA2
:100F8000F2CF4695F1DF08C0161617061806991F0E
:100F9000F1CF86957105610508940895E894BB2703
:100FA00066277727CB0197F908958ADF08F48FEF3A
:100FB00008950BD0C0CFB1DF28F0B6DF18F095232D
:100FC00009F0A2CFA7CF1124EACFC6DFA0F3959FE7
:100FD000D1F3950F50E0551F629FF001729FBB2720
:100FE000F00DB11D639FAA27F00DB11DAA1F649FCC
:100FF0006627B00DA11D661F829F2227B00DA11D7F
:10100000621F739FB00DA11D621F839FA00D611D04
:10101000221F749F3327A00D611D231F849F600D25
:10102000211D822F762F6A2F11249F5750408AF05E
:10103000E1F088234AF0EE0FFF1FBB1F661F771FEA
:10104000881F91505040A9F79E3F510570F05CCF2A
:10105000A6CF5F3FECF3983EDCF3869577956795D6
:10106000B795F795E7959F5FC1F7FE2B880F911D08
:101070009695879597F9089523DF880B990B089526
:10108000A1E21A2EAA1BBB1BFD010DC0AA1FBB1F8C
:10109000EE1FFF1FA217B307E407F50720F0A21BFE
:1010A000B30BE40BF50B661F771F881F991F1A946B
:1010B00069F760957095809590959B01AC01BD0195
:1010C000CF0108950790F691E02D1994F894FFCF81
:1010D00001506F7465313A2000506F7465323A20C8
:1010E00000506F7465333A2000506F7465343A20B5
:1010F00000506F7465353A20000D0A006E616E0075
:10110000696E66006F7666002E0000000000BD0567
:0A111000970212052B051D059C0532
:00000001FF
